:020000040000FA
:060000000A128A11FC2F18
:100F8400831603138801831203138801081466303F
:100F9400F2007630F100C130F000F00BCF2FF10BEE
:100FA400CF2FF20BCF2F831203130810081529300B
:100FB400F2009630F1007F30F000F00BDF2FF10BE0
:100FC400DF2FF20BDF2F831203130811881466300E
:100FD400F2007630F100C130F000F00BEF2FF10B8E
:100FE400EF2FF20BEF2F831203138810C82F0A126E
:0C0FF4008A11002883010A128A11C22F02
:02400E00713F00
:00000001FF
